:020000040800F2
:1000000000180020F5290008A5290008A7290008E4
:1000100000000000000000000000000000000000E0
:10002000000000000000000000000000A9290008F6
:100030000000000000000000AB290008AD29000806
:10004000752A0008752A0008752A0008752A000814
:10005000752A0008752A0008752A0008752A000804
:10006000752A0008752A0008752A0008752A0008F4
:10007000752A0008752A0008752A0008752A0008E4
:10008000752A00080000000000000000752A000822
:1000900000000000752A0008752A0008752A00086B
:1000A00000000000752A0008752A0008752A00085B
:1000B000752A000800000000752A0008752A00084B
:1000C00010B5064C2378002B07D1054B002B02D02E
:1000D000044800E000BF0123237010BDA0000020F1
:1000E00000000000EC320008044B10B5002B03D0D8
:1000F0000349044800E000BF10BDC04600000000F6
:10010000A4000020EC320008002243088B4274D384
:1001100003098B425FD3030A8B4244D3030B8B4208
:1001200028D3030C8B420DD3FF22090212BA030C11
:100130008B4202D31212090265D0030B8B4219D3F2
:1001400000E0090AC30B8B4201D3CB03C01A524112
:10015000830B8B4201D38B03C01A5241430B8B425A
:1001600001D34B03C01A5241030B8B4201D30B0343
:10017000C01A5241C30A8B4201D3CB02C01A52416A
:10018000830A8B4201D38B02C01A5241430A8B422D
:1001900001D34B02C01A5241030A8B4201D30B0216
:1001A000C01A5241CDD2C3098B4201D3CB01C01A30
:1001B000524183098B4201D38B01C01A524143093A
:1001C0008B4201D34B01C01A524103098B4201D328
:1001D0000B01C01A5241C3088B4201D3CB00C01A95
:1001E000524183088B4201D38B00C01A524143080D
:1001F0008B4201D34B00C01A5241411A00D2014632
:10020000524110467047FFE701B5002000F006F8A4
:1002100002BDC0460029F7D076E770477047C04658
:100220000023C25C0133002AFBD1581E7047000036
:1002300010B504000F4B1978FA208000FFF764FF17
:1002400001000D4B1868FFF75FFF00F07DF80028F4
:100250000DD1032C01D901200AE001300022210038
:10026000404200F03FF8034B5C60002000E00120BA
:1002700010BDC046000000203800002010B5064A1E
:10028000136810210B4313600020FFF7D1FF02F029
:100290000BFB002010BDC04600200240034A11683D
:1002A000034B1B785B1813607047C046CC010020DD
:1002B00000000020014B18687047C046CC010020A8
:1002C00070B50400FFF7F6FF0500631C02D0044B75
:1002D0001B78E418FFF7EEFF401BA042FAD370BD75
:1002E0000000002070B5002811DB8308144DC033D6
:1002F0009B005C5903221040C000FC32160086406F
:10030000B44389010A40824022435A5170BDC0B2B1
:100310000F230340083B9B0806339B00094A944681
:1003200063445D6803242040C000FF221400844021
:10033000A54389011140814029435960E6E7C04641
:1003400000E100E000ED00E001380A4B98420FD8D0
:10035000094A50600948036A1B021B0AC0210906AA
:100360000B43036200239360073313600020704740
:100370000120FCE7FFFFFF0010E000E000ED00E0DF
:10038000F0B5C64600B582B000236EE08468344004
:10039000A446CC68BC406246144384604468AC43C5
:1003A0004A681209012515409D4025434560C468EF
:1003B00026408C68BC403443C4604A68D20053D5A0
:1003C0004A4DAE6901242643AE61AD692C400194CB
:1003D000019C9C08A51CAD00454EAF5903251D404E
:1003E000AD000F26AE40B7439026F605B04275D05B
:1003F000404EB04274D0404EB0426DD00526AE4063
:1004000035003D430234A400394EA5513B4C2568CC
:100410004246D4432E0026404A68D20302D54246C3
:1004200015432E00354D2E606D682E0026404A681B
:10043000920302D5424615432E00304D6E60AD68E2
:100440002E0026404A68D20202D5424615432E00AD
:100450002A4DAE60ED682C404A68920202D54246B1
:100460002A431400254AD46001330A681400DC4092
:1004700038D001259D402A409046F5D04C68022C8A
:1004800001D0122C0ED1DC080834A400275807260E
:100490001E40B6000F22B24097430A69B2401600D0
:1004A0003E43265002685F0003242600BE40F64308
:1004B000324094464A681440BC406246144304608B
:1004C0004C68621E012A00D860E7112C00D15DE75C
:1004D000122C00D06BE759E7022690E700268EE742
:1004E00001268CE702B004BC9046F0BD001002402B
:1004F00000000140000400480008004800040140DA
:10050000002A01D1816270478161FCE74369194289
:1005100001D18161704709048161FBE770B582B048
:10052000041E00D185E20368DB072BD5B34B5A6864
:100530000C231340042B1DD0B04B5A680C231340DE
:10054000082B0ED06368012B41D0002B56D1AB4B4A
:100550001A68AB490A401A601A68AA490A401A6028
:100560003BE0A64B5B68C02252021340802252023D
:100570009342E7D1A14B1B689B0303D56368002B13
:1005800000D159E223689B0778D59C4B5B680C220D
:100590001A4262D0994B5A680C231340082B53D04F
:1005A000E368002B00D18BE0944A136801210B43D0
:1005B0001360FFF77FFE0500904B1B689B0776D406
:1005C000FFF778FE401B0228F6D9032032E28B4A5F
:1005D000116880235B020B4313606368002B25D0F6
:1005E000FFF768FE0500854B1B689B03CAD4FFF725
:1005F00061FE401B6428F6D903201BE2052B09D0BD
:100600007E4B1A687E490A401A601A687D490A4082
:100610001A60E2E7794B19688022D2020A431A6015
:100620001968802252020A431A60D6E7FFF742FE99
:100630000500724B1B689B03A4D5FFF73BFE401BD4
:100640006428F6D90320F5E16C4B5B68C0225202A6
:100650001340802212029342A2D1684B1B689B0771
:1006600004D5E368012B01D00120E3E163490B6865
:10067000F82293432269D20013430B6023681B07BF
:1006800044D5E369002B2ED05C4A536A01210B4309
:100690005362FFF70FFE0500584B5B6A9B0735D48A
:1006A000FFF708FE401B0228F6D90320C2E1534998
:1006B0000B68F82293432269D20013430B60DDE7F5
:1006C0004E4A136801218B431360FFF7F3FD0500C9
:1006D0004A4B1B689B07D1D5FFF7ECFD401B022856
:1006E000F6D90320A6E1454A536A01218B435362A0
:1006F000FFF7E0FD0500414B5B6A9B0706D5FFF75E
:10070000D9FD401B0228F6D9032093E123685B073B
:1007100000D47FE0394BDB69DB001DD4374AD16957
:10072000802040050143D161D36903400193019BBF
:100730000125354B1B68DB0510D5A368012B21D0A3
:10074000002B36D12D4B1A6A01218A431A621A6A8C
:1007500003318A431A621AE00025EAE72A4A11683F
:1007600080235B000B431360FFF7A4FD0600264BBC
:100770001B68DB05E1D4FFF79DFD801B6428F6D9DB
:10078000032057E11D4A136A01210B431362A3683A
:10079000002B24D0FFF78EFD0600184B1B6A9B0729
:1007A00036D4FFF787FD801B184B9842F5D90320FC
:1007B00040E1052B09D0114B1A6A01218A431A62C4
:1007C0001A6A03318A431A62E1E70C4B1A6A042160
:1007D0000A431A621A6A03390A431A62D7E7FFF713
:1007E00069FD0600054B1B6A9B0711D5FFF762FDEB
:1007F000801B064B9842F5D903201BE100100240F4
:10080000FFFFFEFFFFFFFBFF0070004088130000AA
:10081000012D3AD02368DB0610D56369012B3AD04D
:10082000053358D1884A536B04218B435363536B70
:10083000F4318B43A169C9000B43536323689B06C2
:1008400000D482E0804B5A680C2313400C2B60D0FC
:100850007D4B5A680C231340082B53D0236A002B7E
:1008600060D0794A516B80235B020B435363FFF7DF
:1008700021FD0500744B5B6BDB0366D4FFF71AFDAB
:10088000401B0228F6D90320D4E06F4AD3696F4990
:100890000B40D361BEE76C4B5A6B04210A435A6389
:1008A0005A6B03390A435A63FFF704FD0500664B90
:1008B0005B6B9B0706D4FFF7FDFC401B0228F6D9B3
:1008C0000320B7E060494B6BF8229343A269D20042
:1008D00013434B63B2E75C4B5A6B04210A435A63E0
:1008E0005A6B03398A435A63FFF7E4FC0500564B01
:1008F0005B6B9B07A2D5FFF7DDFC401B0228F6D9F6
:10090000032097E0504B5B68C02252021340934291
:10091000A4D14D4B5B6BDB0317D5236A012B14D09D
:10092000012087E0484A536B49490B405363FFF766
:10093000C1FC0500444B5B6BDB0306D5FFF7BAFC3B
:10094000401B0228F6D9032074E0636A002B00D113
:1009500074E03D4A51680C220A40082A4DD0022B0F
:1009600012D0394A13683B490B401360FFF7A2FCD1
:100970000400354B1B689B013DD5FFF79BFC001B1A
:100980000228F6D9032055E02F4A136831490B405D
:100990001360FFF78FFC05002B4B1B689B0106D5EE
:1009A000FFF788FC401B0228F6D9032042E0264BC3
:1009B000DA6A0F218A43216B0A43DA625A682649B0
:1009C0000A40E16AA06A01430A435A60196880221A
:1009D00052040A431A60FFF76DFC04001A4B1B68AF
:1009E0009B0106D4FFF766FC001B0228F6D9032002
:1009F00020E000201EE000201CE0012B20D0124B44
:100A00005A68D96AC0235B021340A06A834201D0AE
:100A100001200FE00F230B40216B8B4201D00120FE
:100A200008E0F0239B031A40E36A9A420AD00120AF
:100A300000E0012002B070BD0120FBE70020F9E7D3
:100A40000120F7E70020F5E700100240FFFFFFEF6D
:100A5000FFFFFEFFFFFFFFFEFF7FC2FF30B589B043
:100A600004AA1F4B180032C832C2110002680A6083
:100A70006A46103313CB13C21B681360194B5A68B4
:100A80000C231340082B04D00C2B26D0164809B099
:100A900030BD910C0F23194004A8445C1149C96A68
:100AA0000B406946C95CC0235B021A4080235B028D
:100AB0009A4208D0C0235B029A4209D00A48FFF745
:100AC00023FB6043E3E70848FFF71EFB6043DEE7D4
:100AD0000648FFF719FB6043D9E70448D7E7C0464B
:100AE000043300080010024000127A00006CDC029F
:100AF00070B504000D00002800D189E0464B1A684B
:100B0000012313408B420BD243490B6801229343CC
:100B10002B430B600B681A40AA4201D0012078E0F9
:100B200023689A070ED55B0705D53C4A5168E02338
:100B3000DB000B435360394A5368F0218B43A168B3
:100B40000B4353602368DB0735D56368012B09D05D
:100B5000022B24D0032B28D0304A1268920705D4E8
:100B6000012056E02D4A1268920353D52B494A685A
:100B70000320824313434B60FFF79CFB0600274B87
:100B80005B680C221A4063689B009A4213D0FFF7FF
:100B900091FB801B224B9842F1D9032039E01F4A78
:100BA00012689201E2D4012033E01C4A526BD20356
:100BB000DCD401202DE0184B1A6801231340AB420E
:100BC0000BD915490B68012293432B430B600B682B
:100BD0001A40AA4201D001201BE023685B0706D51A
:100BE0000E4A53680F490B40E1680B435360FFF70F
:100BF00035FF0A4B5A6812090F2313400A4AD35C87
:100C0000D8400A4B18600020FFF712FB002000E0DC
:100C1000012070BD0120FCE70020024000100240CE
:100C200088130000FFF8FFFF34330008380000206D
:100C3000014B18687047C0463800002010B5FFF718
:100C4000F7FF044B5A68120A07231340024AD35C89
:100C5000D84010BD0010024044330008F8B506002B
:100C60000C0017001D0033689B6823401B1B5A4271
:100C70005341BB423BD06B1CF5D0FFF71BFB069BDF
:100C8000C01AA84201D2002DEDD132685368E0218C
:100C90008B43536082235B0072689A420CD080239E
:100CA0009B01B26A9A4216D05D230122F254013BA5
:100CB0000022F25403201BE0B36880221202934208
:100CC00003D08022D2009342E9D1326813684021D8
:100CD0008B431360E3E73268136806490B401360E7
:100CE0003268116880239B010B431360DCE700200E
:100CF000F8BDC046FFDFFFFFF8B507000C00150088
:100D00001E0001E0731C0CD13A6893682340AB428B
:100D100041D0C023DB009C42F4D1002DF2D1137BE3
:100D2000F0E7FFF7C7FA069BC01AB04201D2002EC7
:100D3000EAD13A685368E0218B43536082235B0019
:100D40007A689A420CD080239B01BA6A9A4216D0E4
:100D50005D230122FA54013B0022FA5403201BE0D8
:100D6000BB6880221202934203D08022D2009342B9
:100D7000E9D13A68136840218B431360E3E73A688E
:100D8000136806490B4013603A68116880239B0181
:100D90000B431360DCE70020F8BDC046FFDFFFFF18
:100DA00070B582B004000D001600C02100922B0027
:100DB00000224901FFF7A0FF002818D100962B0060
:100DC000002280212000FFF749FF002816D1C02112
:100DD00000962B000022C9002000FFF78DFF00289D
:100DE0000AD0236E202213432366032004E0236EDF
:100DF000202213432366032002B070BD236E2022FD
:100E0000134323660320F7E770B582B004000D009A
:100E1000160082235B0042689A420FD000962B0096
:100E2000002280212000FFF719FF002815D182231E
:100E30005B0062689A4216D002B070BD836880225F
:100E40001202934203D08022D2009342E6D122685C
:100E5000136840218B431360E0E7236E2022134385
:100E600023660320E8E7A36880221202934203D09E
:100E70008022D2009342DFD1C02100962B000022B5
:100E8000C9002000FFF738FF0028D5D0236E2022AC
:100E9000134323660320CFE710B5041E5ED0002362
:100EA00083625D33C35C002B4CD05D230222E2548D
:100EB0002268136840218B431360E368E022D2006C
:100EC000934245D90022F02109018B4205D0E0214F
:100ED000C9008B4201D00021A162216B002905D1FC
:100EE000E021C9008B4236D9022323636368A168DD
:100EF0000B4321690B4361690B4380218900A06981
:100F000001400B43E1690B43216A0B432168A06A4E
:100F100003430B60618B04230B40616A0B43616BDD
:100F20000B43E1680B43216813434B602268D3698C
:100F30000B490B40D361002323665D330122E25449
:100F4000002010BD5C330022C25401F0C5FCACE7A8
:100F500080225201B7E701232363C7E70120F0E7AE
:100F6000FFF7FFFFF0B585B00400019116001F00E8
:100F70005C23C35C012B00D1E2E05C230122C2545C
:100F8000FFF798F905005D23E35C012B08D00220F0
:100F90005D230122E254013B0022E25405B0F0BD82
:100FA0000199002900D1BDE0002E00D1BCE05C33E6
:100FB0000322E25400232366A163A687E687236405
:100FC0004132A3520232A3522365E36480231B0201
:100FD000A2689A421DD023681A68520603D41A6880
:100FE00040210A431A60E023DB00E2689A4235D9C7
:100FF0006368002B01D0012E1DD12368A26B1288DB
:10100000DA60A36B0233A363E38F013B9BB2E387F8
:1010100011E0226811688023DB010B431360DAE7DB
:10102000FFF748F9401BB84202D37B1C00D07DE09B
:10103000002F00D17CE0E38F9BB2002B5AD02368B5
:101040009A689207ECD5A26B1288DA60A36B023320
:10105000A363E38F013B9BB2E387ECE76368002B5C
:1010600001D0012E2FD1E38F9BB2012B0BD9236826
:10107000A26B1288DA60A36B0233A363E38F023B97
:101080009BB2E3871FE0A36B1B7822681373A36BEB
:101090000133A363E38F013B9BB2E38713E0A36BB0
:1010A0001B781373A36B0133A363E38F013B9BB2E4
:1010B000E38708E0FFF7FEF8401BB84201D37B1C32
:1010C00038D1002F38D0E38F9BB2002B12D022688A
:1010D00093689B07EED5E38F9BB2012BDFD9A36BFF
:1010E0001B88D360A36B0233A363E38F023B9BB2E5
:1010F000E387E8E72A0039002000FFF751FE0028C7
:1011000001D020232366A368002B06D10393236814
:10111000DA6803929B680393039B236E002B0DD127
:10112000002035E7012033E7012031E703202FE7D6
:1011300003202DE703202BE7032029E7012027E7E1
:1011400002202BE7F0B583B004000E0001921D00D1
:101150005C23C35C012B00D157E15C230122C25404
:10116000FFF7A8F807005D23E35CDBB26268012BA0
:1011700014D0822149008A4208D002205D23012236
:10118000E254013B0022E25403B0F0BDA268002A01
:1011900000D02CE1042B01D00220EFE7002E00D17B
:1011A00027E1019B002B00D125E1002D00D124E196
:1011B0005D23E35C042B02D05D230522E25400236F
:1011C0002366019A22644622A552023AA552A663DA
:1011D000E587A587E3642365E023DB00E2689A42A4
:1011E00001D8012D23D92268536889490B405360E7
:1011F00023681A68520603D41A6840210A431A6009
:10120000E023DB00E2689A4256D96368002B01D0E4
:10121000012D0AD12368A26B1288DA60A36B023316
:10122000A363E38F013B9BB2E387012524E022689F
:10123000516880235B010B435360D9E723689A68A8
:10124000D20710D54622A25A92B2002A0BD0DB68F0
:10125000226C1380236C023323644622A35A013B81
:101260009BB2A3520125FFF725F8C01B089B9842AB
:1012700002D3013300D0C2E0E38F9BB2002B05D133
:101280004633E35A9BB2002B00D1A4E023689A684E
:101290009207D3D5E28F92B2002ACFD0012DCDD1C3
:1012A000A26B1288DA60A36B0233A363E38F013B66
:1012B0009BB2E3870025C1E76368002B01D0012DB5
:1012C0000ED1E38F9BB2012B0CD92368A26B12883D
:1012D000DA60A36B0233A363E38F023B9BB2E38725
:1012E000012546E0A36B1B7822681373A36B0133BF
:1012F000A363E38F013B9BB2E387F1E7E28F92B2F6
:10130000012A0BD9A26B1288DA60A36B0233A363A4
:10131000E38F023B9BB2E38700253DE0A26B12788E
:101320001A73A36B0133A363E38F013B9BB2E38783
:10133000002531E02268516880235B010B43536034
:1013400001250BE01B7B226C1370236C013323649B
:101350004622A35A013B9BB2A3520125FEF7AAFFE6
:10136000C01B089B984201D301334AD1089B002B34
:1013700049D0E38F9BB2002B04D14633E35A9BB292
:10138000002B28D023689A68920705D5E28F92B285
:10139000002A01D0012DB1D023689A68D207DDD58B
:1013A0004622A25A92B2002AD8D04622A25A92B21B
:1013B000012AC7D9DB68226C1380236C02332364B3
:1013C0004622A35A023B9BB2A352A35A9BB2012BC3
:1013D000B0D90125C2E73A0008992000FFF7E0FCE8
:1013E000002800D1CAE6202323660120C6E6022099
:1013F000C4E60120C2E60120C0E60120BEE60320CB
:10140000BCE60320BAE60320B8E60220BCE6C046EC
:10141000FFEFFFFFF0B585B004000D0016001F00C0
:1014200082235B0042689A4217D05C23E35C012B65
:1014300000D1B7E05C230122E254FEF73BFF0390AA
:101440005D23E35C012B14D002205D230122E254D2
:10145000013B0022E25405B0F0BD8368002BE4D1CB
:101460005D330422C254009733000A00FFF76AFE7E
:10147000F1E7002D00D187E0002E00D186E05C333B
:101480000422E2540023236625644032A65202322D
:10149000A652A363A387E387E3642365E023DB000D
:1014A000E2689A4217D9226853683F490B4053605B
:1014B00080231B02A2689A4214D023681A6852063D
:1014C00003D41A6840210A431A60E023DB00E26873
:1014D0009A4217D935E02268516880235B010B439B
:1014E0005360E5E72268136830490B401360E4E776
:1014F000FEF7E0FE039BC01AB84201D37B1C47D124
:10150000002F47D04623E35A9BB2002B2ED02368EE
:101510009A68D207ECD51B7B226C1370236C0133C5
:1015200023644622A35A013B9BB2A352EAE7FEF78B
:10153000C1FE039BC01AB84201D37B1C2CD1002FE3
:101540002CD04623E35A9BB2002B0FD023689A6815
:10155000D207ECD5DB68226C1380236C0233236442
:101560004622A35A013B9BB2A352EAE7039A3900F1
:101570002000FFF749FC002801D020232366236EBA
:10158000002B0DD1002060E701205EE701205CE721
:1015900003205AE7032058E7032056E7032054E7C7
:1015A000012052E7022056E7FFEFFFFFFFBFFFFFDA
:1015B00010B5040083680269134342691343C2698A
:1015C000134301680A686A48024013430B602268AB
:1015D000536868490B40E1680B435360226AA36972
:1015E0001A4321688B686448034013438B60236867
:1015F000624A93421FD0624A934230D01023802225
:101600001202E16991422ED0022B00D190E077D9ED
:10161000042B00D198E0082B00D0A1E063685808A3
:1016200080231B029C4660446168FEF76DFD030445
:101630001B0C002071E0534B1A6B03231340012B4A
:1016400009D0002B05D0022B07D0032B09D0102383
:10165000D5E70023D3E70423D1E70823CFE700230E
:10166000CDE70223CBE7022B2ED010D9042B37D0A5
:10167000082B42D16368580880235B029C46604473
:101680006168FEF741FD03041B0C00200DE0002BF8
:1016900033D1FFF7D3FA400063685B08C018616874
:1016A000FEF732FD03041B0C002037491A00103AE4
:1016B0008A4258D80F22190091435B08083A134018
:1016C0000B432268D3602FE0636858082F4B9C4679
:1016D00060446168FEF718FD03041B0C0020E4E77A
:1016E000FFF7BCF9400063685B08C0186168FEF74B
:1016F0000BFD03041B0C0020D7E701200023D4E7D7
:10170000002B2DD1FFF79AFA63685B0818186168FF
:10171000FEF7FAFC03041B0C00201B491A00103AC8
:101720008A4222D82268D36000232366636610BDF4
:1017300063685808164B9C4660446168FEF7E4FCF9
:1017400003041B0C0020E8E7FFF788F963685B08D7
:1017500018186168FEF7D8FC03041B0C0020DCE7B6
:1017600001200023D9E70120DEE70120DCE7C046A5
:10177000F369FFEFFFCFFFFFFFF4FFFF00380140E9
:101780000044004000100240EFFF00000024F4007D
:1017900000127A00436ADB0706D5026853682C49B9
:1017A0000B40816A0B435360436A9B0706D502686E
:1017B000536828490B40C16A0B435360436A5B0777
:1017C00006D50268536824490B40016B0B435360F4
:1017D000436A1B0706D50268536820490B40416BDA
:1017E0000B435360436ADB0606D5026893681C49C5
:1017F0000B40816B0B439360436A9B0606D50268DE
:10180000936818490B40C16B0B439360436A5B06B6
:101810000BD50268536814490B40016C0B435360AD
:1018200080235B03026C9A420AD0436A1B0606D5EA
:10183000026853680D490B40816C0B43536070473D
:10184000026853680A490B40416C0B435360ECE754
:10185000FFFFFDFFFFFFFEFFFFFFFBFFFF7FFFFF1F
:10186000FFEFFFFFFFDFFFFFFFFFEFFFFFFFF7FFD0
:10187000FFFF9FFFF0B5C64600B505000C0017003E
:101880009846069E2B68DB6923401B1B5A42534136
:10189000BB423AD1731CF5D0FEF70CFD4346C01A8B
:1018A000B0421FD8002E1DD02B681A685207E9D508
:1018B000DA691205E6D5802212011A622A681368D5
:1018C00014490B4013602A689368A331FF318B439E
:1018D000936020236B67AB67EB6750330022EA54B9
:1018E000032013E02A6813680A490B4013602A6832
:1018F0009368A331FF318B43936020236B67AB6701
:1019000050330022EA54032000E0002004BC90463B
:10191000F0BDC0465FFEFFFFF0B585B004000E00CD
:1019200017001D00436F202B5FD1002960D0002AD3
:1019300060D080235B0182689A4218D07023E35CF8
:10194000012B59D070230122E2540023E367213395
:101950006367FEF7AFFC03905023E7520233E75270
:1019600080235B01A2689A4208D0002719E003692E
:10197000002BE3D1CB07E1D5012037E02369002B11
:1019800001D000270DE0370000260AE03B88DB0588
:10199000DB0D2268138502375222A35A013B9BB20A
:1019A000A3525223E35A9BB2002B0FD00095039B06
:1019B000002280212000FFF75DFF00281ED1002EAD
:1019C000E4D03378226813850136E5E70095039B60
:1019D000002240212000FFF74DFF002810D12023D6
:1019E000636750330022E25400E0022005B0F0BDEE
:1019F0000120FBE70120F9E70220F7E70320F5E7E4
:101A00000320F3E730B583B004000023C367FEF77B
:101A100051FC050023681B681B070CD423681B6856
:101A20005B0715D420236367A36750330022E25479
:101A3000002003B030BD80210C4B00930300002236
:101A400089032000FFF716FF0028E7D00320F0E706
:101A50008021064B00932B000022C9032000FFF7D2
:101A600009FF0028DED00320E3E7C046FFFFFF01A7
:101A700010B5041E2ED0436F002B21D024236367A2
:101A80002268136801218B4313602000FFF790FD4B
:101A9000012814D0636A002B18D1226853680E49BC
:101AA0000B405360226893682A218B43936022681D
:101AB000136829390B4313602000FFF7A3FF10BD03
:101AC00070330022C25400F039FFD7E72000FFF73F
:101AD00061FEE2E70120F2E7FFB7FFFF10B501204A
:101AE000FEF7EEFB10BD000010B5002806D1074B35
:101AF000198858680022FEF703FD10BD034B1988B2
:101B000058680122FEF7FCFCF7E7C046C000002041
:101B100010B5002806D1074B198958680022FEF736
:101B2000EFFC10BD034B198958680122FEF7E8FC51
:101B3000F7E7C046C000002030B583B004000020A5
:101B4000FFF7D2FF1F20204001AD28700A4C0C3453
:101B50006423012229002000FFF704FA64230122F4
:101B6000694605312000FFF755FC6C780120FFF72E
:101B7000BBFF200003B030BDC000002070B582B0B4
:101B800004000E0015000020FFF7AEFF1F202040CC
:101B900001A90870084C0C34642301222000FFF7CF
:101BA000E1F9AAB2642331002000FFF733FC0120E1
:101BB000FFF79AFF02B070BDC000002030B583B0BF
:101BC00004000D000020FFF78FFF01A920231C4314
:101BD0000C704D700548642302220C30FFF7C2F9E7
:101BE0000120FFF781FF03B030BDC046C0000020D8
:101BF00070B582B004000E0015000020FFF774FFDE
:101C000001A920231C430C70084C0C3464230122CE
:101C10002000FFF7A7F9AAB2642331002000FFF7E4
:101C2000A1F90120FFF760FF02B070BDC0000020E5
:101C300010B5FF21E120FFF7C1FF10BD10B5FF2156
:101C4000E220FFF7BBFF10BD10B50720FFF774FFC0
:101C500010BD000010B50020FFF76EFF0321014307
:101C6000C9B20020FFF7AAFF0B4B1A6F596F130080
:101C70000B430AD1FFF7DCFFFFF7E0FF0120FFF77E
:101C800047FF9620FFF72AFF10BD03490522703158
:101C90000A20FFF7ADFFEDE7C000002010B582B0CD
:101CA000040000920193002804D1154B0099019A79
:101CB00019675A67062C1AD8012C1AD9114B185DCE
:101CC00001226946FFF794FF0D4A7823D15C0D4B42
:101CD0001B19187AFFF772FF0220FFF72DFF40B2A1
:101CE0000121A1400143C9B20220FFF767FF02B002
:101CF00010BD044B185D05226946FFF779FFE3E745
:101D0000C00000202433000810B500010F23194043
:101D10000143C9B20420FFF751FF10BD10B5011CEB
:101D20007F2800D97F21C9B20520FFF747FF10BDEA
:101D3000031C202800D92023014978228B547047A6
:101D4000C0000020014A7823D05C7047C00000200A
:101D500070B582B006000D00FFF7F4FF0400A84242
:101D600018D80020FFF7C0FE6B46D91D61230B7009
:101D7000094D0C35033301222800FFF7F3F8A2B216
:101D8000642331002800FFF745FB0120FFF7ACFE7C
:101D900002B070BD2C00E4E7C000002010B5602048
:101DA000FFF7CAFE10BD10B5FFF7D2FF1720FFF7EF
:101DB000C3FE01240440FFF741FFFFF7EFFF2000BF
:101DC00010BD10B51D20FFF7B7FE04239843C1B224
:101DD0001D20FFF7F3FE00211C20FFF7EFFE10BDD2
:101DE00010B5002804D100210120FFF7E7FE10BD47
:101DF0003F210120FFF7E2FEF9E710B504000620BD
:101E0000FFF79AFE06239843C1B2032C0AD0022C96
:101E10000DD0012C0ED0002C05D0042C03D10623AC
:101E2000194300E019430620FFF7C8FE10BD042344
:101E30001943F8E702231943F5E770B505000620BA
:101E4000FFF77AFE28239843C4B2022D0CD0012D4F
:101E50000DD021000620FFF7B1FE0620FFF76CFE33
:101E6000A04207D0002070BD20231C43F1E70823C7
:101E70001C43EEE70120F6E710B504000020FFF751
:101E80005BFE0C239843C1B2002C03D0012C05D07B
:101E90000C2319430020FFF791FE10BD08231943BE
:101EA000F8E710B50020FFF747FE02239843C1B2C0
:101EB0000020FFF783FE10BD70B50600FFF7C4FEDB
:101EC0000500402303401C00621E9441E4B2002B35
:101ED0000BD0002E03D0420807231340337040215B
:101EE0000720FFF76BFEAB0601D4200070BD202158
:101EF0000720FFF763FEF8E710B50020FFF7DCFFCF
:101F000010BD10B570210720FFF758FE10BD00006E
:101F100000B583B00020FFF7E7FD01A950230B7047
:101F200023334B7005480F3B02220C30FFF71AF8A1
:101F30000120FFF7D9FD03B000BDC046C00000205E
:101F400070B5A0B03322F94907A800F0BFFD07A87B
:101F5000FEF766F982B20A2307A9F548FFF7DCFC11
:101F60000020FFF7E9FD030700D457E2430700D440
:101F700047E207A9EF480B00020013CA13C313CAB4
:101F800013C312681A6007A8FEF74AF982B2E84D37
:101F90000A2307A92800FFF7BFFC0120FFF7CCFDAB
:101FA00043080124234022000240410921400391BB
:101FB000010921400291C10821400191800820407F
:101FC0000090DD4907A800F093FD07A8FEF728F967
:101FD00082B20A2307A92800FFF79EFC0220FFF720
:101FE000ABFD4308234022000240410921400391F8
:101FF000010921400291C10821400191800804405B
:102000000094CE4907A800F073FD07A8FEF708F971
:1020100082B20A2307A92800FFF77EFC0320FFF7FE
:102020008BFD032202400232C54907A800F060FD83
:1020300007A8FEF7F5F882B20A2307A92800FFF7E0
:102040006BFC0520FFF778FD7F220240BD4907A801
:1020500000F04EFD07A8FEF7E3F882B20A2307A9B5
:102060002800FFF759FC0620FFF766FD0400030770
:1020700000D4DCE107A9B4480B00020023CA23C343
:1020800003CA03C31188198092789A7007A8FEF7D3
:10209000C7F882B20A2307A9A548FFF73DFC6008EC
:1020A0000323184000D1CFE1012800D1D5E1022857
:1020B00000D1DBE1032800D1E4E107A8FEF7B0F886
:1020C00082B29B4D0A2307A92800FFF725FC05AC27
:1020D000052221000A20FFF751FD2279E378A1783B
:1020E00060782678029601900091984907A800F040
:1020F000FFFC07A8FEF794F882B20A2307A928007C
:10210000FFF70AFC052221000B20FFF737FD22799B
:10211000E378A178607826780296019000918C4946
:1021200007A800F0E5FC07A8FEF77AF882B20A23B8
:1021300007A92800FFF7F0FB012221000C20FFF780
:102140001DFD2278834907A800F0D2FC07A8FEF7FE
:1021500067F882B20A2307A92800FFF7DDFB0122F6
:1021600021000D20FFF70AFD22787B4907A800F027
:10217000BFFC07A8FEF754F882B20A2307A928007B
:10218000FFF7CAFB012221000E20FFF7F7FC22789F
:10219000724907A800F0ACFC07A8FEF741F882B22C
:1021A0000A2307A92800FFF7B7FB012221000F200F
:1021B000FFF7E4FC22786A4907A800F099FC07A819
:1021C000FEF72EF882B20A2307A92800FFF7A4FB26
:1021D000052221001020FFF7D1FC2279E378A178B5
:1021E000607824780294019000915E4907A800F07D
:1021F0007FFC07A8FEF714F882B20A2307A928007B
:10220000FFF78AFB1120FFF797FC3F2402002240D2
:10221000554907A800F06CFC07A8FEF701F882B248
:102220000A2307A92800FFF777FB1220FFF784FC99
:10223000020022404D4907A800F05AFC07A8FDF70C
:10224000EFFF82B20A2307A92800FFF765FB1320DE
:10225000FFF772FC02002240454907A800F048FC45
:1022600007A8FDF7DDFF82B20A2307A92800FFF7C0
:1022700053FB1420FFF760FC020022403D4907A8F1
:1022800000F036FC07A8FDF7CBFF82B20A2307A9AE
:102290002800FFF741FB1520FFF74EFC020022400B
:1022A000354907A800F024FC07A8FDF7B9FF82B262
:1022B0000A2307A92800FFF72FFB1620FFF73CFC95
:1022C000220002402D4907A800F012FC07A8FDF7E4
:1022D000A7FF82B20A2307A92800FFF71DFB1C20D5
:1022E000FFF72AFC430801210B400A000240440981
:1022F0000C40039404090C400294C4080C4001945F
:102300008008084000901E4907A800F0F1FB07A8CC
:10231000FDF786FF82B20A2307A92800FFF7FCFA1F
:102320001D20FFF709FC04002CE0C0464C330008D8
:102330003C01002080330008CC3300081034000832
:102340005C340008783400088C3400080C35000830
:102350003C3500086C35000894350008BC35000891
:10236000E43500080C3600083836000854360008FA
:10237000703600088C360008A8360008C4360008FD
:10238000E0360008430700D486E007A94E480B005A
:10239000020023CA23C303CA03C312881A8007A8F2
:1023A000FDF73EFF82B20A2307A94848FFF7B4FAB7
:1023B000A30700D57DE007A945480B00020013CA1A
:1023C00013C313CA13C31188198092789A7007A88F
:1023D000FDF726FF82B23D4C0A2307A92000FFF734
:1023E0009BFA33223B4907A800F070FB07A8FDF7D2
:1023F00017FF82B20A2307A92000FFF78DFA20B049
:1024000070BD07A934480B00020013CA13C313CAD6
:1024100013C31188198092789A70B4E507A92F48E0
:102420000B00020013CA13C303CA03C3ABE507A919
:102430002B480B00020023CA23C303CA03C311881D
:10244000198092789A7021E607A926480B000200AD
:1024500013CA13C303CA03C32FE607A922480B00FC
:10246000020013CA13C303CA03C326E607AB1F4AFD
:1024700013CA13C3190013680B6093888B80937978
:102480008B711AE607AB1A4A13CA13C319001368F3
:102490000B6093888B8010E607A916480B0002009A
:1024A00023CA23C303CA03C31188198092789A7080
:1024B00075E707A910480B00020013CA13C313CA1B
:1024C00013C312881A8082E72C3700083C010020D1
:1024D000783700084C3300089C330008B8330008F4
:1024E000A4340008BC340008D0340008E4340008E8
:1024F000F8340008443700085C37000882B0F0B5B3
:1025000083B007000E00150009935A4C20000C30D0
:10251000642209A900F0DAFA67602680258101208B
:10252000FFF7E2FA0020FFF7F3FA0520FDF7C8FEF7
:1025300008210020FFF742FB3F210120FFF73EFB6F
:1025400003210220FFF73AFB03210320FFF736FBAC
:1025500003210420FFF732FB02210520FFF72EFBA9
:102560000F210620FFF72AFB0E210720FFF726FB8D
:1025700000210820FFF722FB00210920FFF71EFBA6
:10258000E7246B461C71DC709C705C701C7005222B
:1025900069460A20FFF72CFBC2236A461371D370E9
:1025A000937053701370052269460B20FFF720FBD0
:1025B000C3210C20FFF702FBC4210D20FFF7FEFA18
:1025C000C5210E20FFF7FAFAC6210F20FFF7F6FA11
:1025D0006B461C71DC709C705C701C700522694637
:1025E0001020FFF705FB00211120FFF7E7FA00217B
:1025F0001220FFF7E3FA00211320FFF7DFFA002192
:102600001420FFF7DBFA00211520FFF7D7FA00218D
:102610001620FFF7D3FAFFF77BFC00211C20FFF701
:10262000CDFA00211D20FFF7C9FAFFF789FC0F2121
:102630000F20FFF769FB0320FFF7DFFB0120FFF707
:10264000FCFB0220FFF718FCFFF7BBFB2020FFF785
:102650006FFBFFF756FC4C20FFF760FBFFF7E8FA33
:10266000FFF7ECFAFFF71DFC03B0F0BC08BC02B0AA
:102670001847C046C000002084B010B502900391F6
:1026800004920593802202A9034800F01FFA10BCAF
:1026900008BC04B01847C0463C010020F0B589B022
:1026A0001422002103A800F01AFA1B4B596980205C
:1026B0008002014359615A6902400192019A5A69A4
:1026C0008021C9020A435A615B690B400293029B55
:1026D0009027FF05002218213800FDF711FF0F4D4C
:1026E000002208212800FDF70BFF18230393012681
:1026F000049600240594069403A93800FDF740FED3
:102700000823039304960594069403A92800FDF773
:1027100037FE09B0F0BDC04600100240000400487A
:1027200010B50F480F4B036082235B00436000230A
:102730008360E022D200C260036143618022920084
:102740008261E13AFF3AC261036243628362193AED
:10275000C262036308334363FEF79EFB10BDC046AD
:10276000100200200030014010B50948094B0360F9
:10277000E1235B02436000238360C36003610C229A
:1027800042618361C36103624362FFF771F910BD67
:10279000740200200044004000B593B030220021B4
:1027A00006A800F09CF91022002101A800F097F97A
:1027B00002230593013B08930F33099305A8FDF706
:1027C000ADFE07230193002302930393049300219A
:1027D00001A8FEF78DF913B000BD000030B59DB023
:1027E000FDF74CFDFFF7D8FFFFF758FFFFF798FF05
:1027F000FFF7BAFF264C9025211D6022684600F0A5
:1028000065F9236808221021E805FFF777FE214CBF
:10281000210010317022684600F058F92068616884
:10282000A268E368FFF728FFFFF78AFB0020FFF7A5
:10283000D7FA3420FFF772FA2020FFF779FA164B07
:102840001A685B680120FFF729FAFFF703FAFFF720
:1028500077FB02E01148FDF733FD08211048FDF732
:1028600055FEFFF749FB0028F4D00E4C2021200034
:10287000FFF799FA20230D22E2540133033AE25480
:10288000173B183221000348FFF746F8E2E7C0463D
:102890001002002074020020080000201027000011
:1028A00000040048D001002082B00A4B996901223F
:1028B0001143996199690A400092009ADA6980216E
:1028C00049050A43DA61DB690B400193019B02B0C1
:1028D0007047C0460010024010B588B004001422B2
:1028E000002103A800F0FBF82268124B9A4201D0A5
:1028F00008B010BD104B99698020400101439961D7
:102900009A6902400192019A5A69802189020A4318
:102910005A615B690B400293029BE0230393DE3B09
:10292000049301330693902003A9C005FDF728FD09
:10293000DEE7C046003001400010024010B588B00C
:1029400004001422002103A800F0C9F82268124BE9
:102950009A4201D008B010BD104BD9698022920272
:102960001143D961D9691140019101995969114304
:1029700059615B691A400292029B094B039302233F
:10298000049301330693023B0793902003A9C005EB
:10299000FDF7F6FCDEE7C0460044004000100240B0
:1029A000048000007047FEE77047704710B5FDF7E0
:1029B00075FC10BD10B503000B4A1268002A08D040
:1029C000094A1068C3186A46934206D8064A13603B
:1029D00010BD054A05491160F2E700F04DF80C23DF
:1029E000036001204042F3E7BC010020F802002010
:1029F000704700001348854613480168090E134AC2
:102A0000914205D1124813490160134813490160EE
:102A100013481449144A002302E0D458C450043324
:102A2000C4188C42F9D3114A114C002301E0136001
:102A30000432A242FBD3FFF7DBFF00F023F8FFF7DD
:102A4000CDFEFEE700180020040000001F0000007B
:102A500018100240010000000000014000000000CA
:102A600000000020A0000020CC380008A0000020BA
:102A7000F8020020FEE70000014B18687047C046CE
:102A80003C00002070B500260C4D0D4C641BA410BA
:102A9000A64209D1002600F029FC0A4D0A4C641B0D
:102AA000A410A64205D170BDB300EB58984701367B
:102AB000EEE7B300EB5898470136F2E7C438000858
:102AC000C4380008C4380008C8380008002310B50E
:102AD0009A4200D110BDCC5CC4540133F8E7030026
:102AE0001218934200D1704719700133F9E70000C2
:102AF0000EB400B50B499CB01DAB02900690079137
:102B000004910948094904CB0591006802A9019381
:102B100000F070F80023029A13701CB008BC03B0D8
:102B20001847C046FFFFFF7F3C0000200802FFFF60
:102B3000F0B58E6885B007000C00039201939E42A9
:102B40003CD890238A89DB001A4234D003250969D6
:102B500023685B1A0293636902985D43EB0F5D196A
:102B6000019B6D1001331B18AB4200D91D005305AA
:102B700032D52900380000F019FB061E09D10C23BC
:102B80003B6040230120A28940421343A38105B04A
:102B9000F0BD029A2169FFF799FFA389144A1A40F0
:102BA00080231343A381029B2661F618266065618A
:102BB000019EED1AA560019B9E4200D9019E320044
:102BC0000399206800F095FAA36800209B1BA3607E
:102BD00023689E192660DAE72A00380000F044FBDB
:102BE000061EE0D12169380000F096FAC7E7C0461A
:102BF0007FFBFFFFF0B5A1B003901D008B890F0094
:102C000016001B0611D50B69002B0ED1402100F0D8
:102C1000CDFA38603861002805D10C23039A0138B9
:102C2000136021B0F0BD40237B61002308AC6361D9
:102C3000203363761033A376079535002B78002B6D
:102C400001D0252B46D1AB1B05930CD032003900A7
:102C50000398FFF76DFF431C00D1AEE06269059B4E
:102C60009446634463612B78002B00D1A5E00122D8
:102C700000235242626004A9543252186E1C236031
:102C8000E360A3601370A36531780522534800F018
:102C900025FA751C00281FD12268D30604D55323BA
:102CA00004A95B1820211970130704D5532304A924
:102CB0005B182B21197033782A2B16D03500002190
:102CC0000A20E3682A786E1C303A092A4ED9002976
:102CD00018D010E00135B1E7404B2268C01A01233B
:102CE0008340134323602E00CEE7079B191D1B680A
:102CF0000791002B01DB0B9304E05B42E3600223AE
:102D0000134323602B782E2B0AD16B782A2B35D1D5
:102D1000079B02351A1D1B680792002B2BDB0993BA
:102D20002F4E29780322300000F0D8F9002806D071
:102D30004023801B83402268013513432360297898
:102D4000062228486E1C217600F0C8F900283CD0E5
:102D5000254B002B25D10722079B073393430833CC
:102D600007936369049A9B18636166E743430121F3
:102D70009B183500A6E701235B42D0E700230A2019
:102D80001A000135636029786E1C3039092903D98E
:102D9000002BC5D00992C3E74243012352183500E6
:102DA000F1E707AB00933A00104B2100039800E0D5
:102DB00000BF0490049B0133D3D1BB890D985B06FF
:102DC00000D42EE7012040422BE707AB00933A00E6
:102DD000064B2100039800F079F8EAE790380008E4
:102DE000963800089A38000800000000312B0008CF
:102DF000F7B5150001938A680B6900900C009342A7
:102E000000DA130022002B6043321278002A01D02E
:102E100001332B6023689B0602D52B6802332B609D
:102E2000062723681F4027D0230043331B785A1EF0
:102E300093412268920630D42200019943320098CF
:102E4000089EB047431C25D0062320682A68E16805
:102E500003400025042B03D18D1AEB43DB171D40E3
:102E6000A3682269934201DD9B1AED180027BD4239
:102E700020D1002010E00137E3682A689B1ABB428A
:102E8000D2DD22000123193201990098089EB04733
:102E9000431CF0D101204042FEBD3020E1184331F7
:102EA000087021005A1C45310978A21843320233B8
:102EB0001170C1E7220001231A3201990098089E7F
:102EC000B047431CE6D00137D1E70000F0B589B028
:102ED00004920A0043320593039002920A7E0C008A
:102EE0000E9B6E2A00D186E01FD8632A33D008D803
:102EF000002A00D18CE0582A4DD0250042352A7096
:102F000030E0642A01D0692AF7D1196825680A1DC2
:102F1000280629D508681A60002803DA2D23029AAA
:102F2000404213706B4E0A274FE0732A74D008D8C2
:102F30006F2A1FD0702AE0D1202209680A4322603C
:102F400003E0752A16D0782AD7D12200782145329D
:102F50001170614E22E025001A684235111D19607A
:102F600013682B70012365E008681A606906D3D5E1
:102F700000B2D1E719682568081D186008682E0698
:102F800005D5544E08276F2A1BD00A2719E06D0675
:102F9000F7D580B2F5E745314E4E0A7018682268C1
:102FA000011D00681960150621D5D30702D520231D
:102FB0001A4322601027002803D1202322689A4355
:102FC00022602300002243331A706368A360002B41
:102FD00058DB0422216891432160002854D1029DCE
:102FE000002B5AD02500337842352B7055E055061A
:102FF000DBD580B2D9E71A680D68101D49691860E1
:1030000013682E0601D5196002E06D06FBD5198004
:103010000023029D23614FE01A68111D1960156895
:1030200000216268280000F059F8002801D0401BF8
:103030006060636823610023029A13703CE0236997
:103040002A0004990398059DA847431C3ED0236895
:103050009B0715D4079BE068984239DA180037E0DF
:1030600022000123193204990398059EB047431C9E
:103070002CD00135E368079A9B1AAB42F0DCE9E7F4
:103080000025F7E70028ADD0029D3900FDF7C2F812
:10309000735C013D2B700028F7D1082F09D12368FC
:1030A000DB0706D563682269934202DC3023013DC9
:1030B0002B70029B5B1B2361059B07AA00932100D9
:1030C000049B0398FFF794FE431CB8D101204042B3
:1030D00009B0F0BDA1380008B2380008C9B28218A2
:1030E000904201D10020704703788B42FBD0013021
:1030F000F6E710B5884202D98B18984203D3002313
:1031000007E08B5C8354013AFBD210BDCC5CC45405
:1031100001339A42FAD1F8E770B50500002910D0C2
:103120000C1F2368002B00DAE418280000F0D4F804
:103130001D4A1368002B05D163601460280000F05D
:10314000CCF870BDA34209D9216860188342F3D13D
:1031500018685B6841182160EEE713005A68002A7E
:1031600001D0A242F9D919685818A0420BD12068A1
:103170000918581819608242E0D110685268411845
:1031800019605A60DAE7A04202D90C232B60D5E718
:1031900021686018824203D110685268411821608A
:1031A00062605C60CAE7C046C4010020032370B5BA
:1031B000CD1C9D43083506000C2D1ED20C25A942BE
:1031C0001DD8300000F088F8254A14682100002935
:1031D00019D1244C2368002B03D1300000F06AF889
:1031E00020602900300000F065F8431C2BD10C232F
:1031F0003000336000F071F803E0002DDFDA0C23BB
:103200003360002070BD0B685B1B19D40B2B03D9F6
:103210000B60CC18256003E04B688C420DD1136025
:10322000300000F05AF8200007220B30231D904395
:10323000C31AE7D05A42E250E4E763600C00EFE7BC
:103240000C004968C3E70323C41C9C43A042E1D09F
:10325000211A300000F02EF8431CDBD1C7E7C0462E
:10326000C4010020C8010020F8B507000D001600B9
:10327000002905D11100FFF799FF04002000F8BDD7
:10328000002A03D1FFF748FF3400F7E700F026F8E3
:103290002C00B042F2D231003800FFF787FF041E45
:1032A000ECD029003200FFF711FC29003800FFF7AD
:1032B00033FFE3E7002370B5064C050008002360E8
:1032C000FFF778FB431C03D12368002B00D02B6051
:1032D00070BDC046F4020020704770470B1F1B688A
:1032E000181F002B01DA0B58C0187047F8B5C046FC
:1032F000F8BC08BC9E467047F8B5C046F8BC08BC90
:043300009E4670472E
:1033040002030405060708090A0B0C0D0E0F101022
:103314000102030405060708090A0B0C0D0E0F1021
:103324000A0B0C0D0E0F10001112131415160000C9
:103334000000000000000000010203040607080961
:1033440000000000010203040D0A2A2A2A2A2A2A5C
:103354002A2A2A2A2A2A2A2A2A2A2A2A2A2A2A2AC9
:103364002A2A2A2A2A2A2A2A2A2A2A2A2A2A2A2AB9
:103374002A2A2A2A2A2A2A2A0D0A00004352433AD0
:103384000D0A0909456E61626C65642C2032204285
:1033940079746573200D0A004352433A0D0A0909F2
:1033A400456E61626C65642C20312042797465201D
:1033B4000D0A00004352433A0D0A09094469736136
:1033C400626C6564200D0A00454E41413A0D0A09BC
:1033D4000950303A0925640D0A090950313A092582
:1033E400640D0A090950323A0925640D0A09095085
:1033F400333A0925640D0A090950343A0925640D44
:103404000A090950353A0925640D0A00454E5F52F0
:1034140058414444523A0D0A090950303A09256486
:103424000D0A090950313A0925640D0A0909503277
:103434003A0925640D0A090950333A0925640D0A2D
:10344400090950343A0925640D0A090950353A0925
:1034540025640D0A0000000053455455505F415740
:103464003A0D0A09092564206279746573200D0AEE
:103474000000000052465F43483A0D0A09092564DA
:10348400204348200D0A0000446174612052617495
:10349400653A0D0A0909324D627073200D0A000065
:1034A4004461746120526174653A0D0A0909314D11
:1034B400627073200D0A000052465F5057523A0D55
:1034C4000A09092D31386442200D0A0052465F5022
:1034D40057523A0D0A09092D31326442200D0A006F
:1034E40052465F5057523A0D0A09092D366442205C
:1034F4000D0A000052465F5057523A0D0A0909302E
:103504006442200D0A00000052585F506970653013
:103514002041646472733A0D0A0909253032582C2B
:10352400253032582C253032582C253032582C2551
:1035340030325820200D0A0052585F5069706531AE
:103544002041646472733A0D0A0909253032582CFB
:10355400253032582C253032582C253032582C2521
:1035640030325820200D0A0052585F50697065327D
:103574002041646472733A0D0A090978782C7878CA
:103584002C78782C78782C2530325820200D0A009D
:1035940052585F50697065332041646472733A0D08
:1035A4000A090978782C78782C78782C78782C2566
:1035B40030325820200D0A0052585F50697065342B
:1035C4002041646472733A0D0A090978782C78787A
:1035D4002C78782C78782C2530325820200D0A004D
:1035E40052585F50697065352041646472733A0DB6
:1035F4000A090978782C78782C78782C78782C2516
:1036040030325820200D0A005458204164647273EB
:103614003A0D0A0909253032582C253032582C2508
:103624003032582C253032582C2530325820200D79
:103634000A00000052585F50575F50303A0D0A0993
:10364400092564206279746573200D0A0000000066
:1036540052585F50575F50313A0D0A0909256420CA
:103664006279746573200D0A0000000052585F509F
:10367400575F50323A0D0A0909256420627974654E
:1036840073200D0A0000000052585F50575F5033FA
:103694003A0D0A09092564206279746573200D0ABC
:1036A4000000000052585F50575F50343A0D0A0929
:1036B400092564206279746573200D0A00000000F6
:1036C40052585F50575F50353A0D0A090925642056
:1036D4006279746573200D0A0000000044594E504D
:1036E400445F706970653A0D0A090950303A09253A
:1036F400640D0A090950313A0925640D0A09095073
:10370400323A0925640D0A090950333A0925640D32
:103714000A090950343A0925640D0A090950353A51
:103724000925640D0A000000454E5F44504C3A0DD3
:103734000A0909456E61626C6564200D0A00000087
:10374400454E5F44504C3A0D0A090944697361625D
:103754006C6564200D0A0000454E5F41434B5F5089
:1037640041593A0D0A0909456E61626C6564200D80
:103774000A000000454E5F41434B5F5041593A0DEA
:103784000A090944697361626C6564200D0A0000CA
:103794000D0A2D2D2D2D2D2D2D2D2D2D2D2D2D2D98
:1037A4002D2D2D2D2D2D2D2D2D2D2D0D0A0000000F
:1037B400535441545553207265673A0D0A0909520E
:1037C400585F44523A090925640D0A090954585F9F
:1037D40044533A090925640D0A09094D41585F52B9
:1037E400543A090925640D0A090952585F505F4E7D
:1037F4004F3A0925640D0A090954585F46554C4C43
:103804003A0925640D0A0000434F4E464947207289
:1038140065673A0D0A09095057525F55503A09092C
:1038240025640D0A09095052494D5F52583A092539
:10383400640D0A004649464F205374617475732021
:103844007265673A0D0A090954585F46554C4C3A5B
:10385400090925640D0A090954585F454D50545906
:103864003A090925640D0A090952585F46554C4C1A
:103874003A090925640D0A090952585F454D505407
:10388400593A090925640D0A00000000232D302B44
:103894002000686C4C00656667454647003031324D
:1038A40033343536373839414243444546003031A4
:1038B4003233343536373839616263646566000003
:0438C400E90000080F
:0438C800C100000833
:1038CC000100000004000000AA4433221100000093
:1038DC0048656C6C6F20776F726C6421000000007F
:1038EC0000000000000000000000000000000000CC
:1038FC00AA4433221100000000127A00400000207C
:10390C0000000000000000000000000000000000AB
:10391C00000000000000000000000000000000009B
:10392C00000000000000000000000000000000008B
:10393C00000000000000000000000000000000007B
:10394C00000000000000000000000000000000006B
:10395C00000000000000000000000000000000005B
:04000005080029F5D1
:00000001FF
